{
  "_format": "hh3-artifact-1",
  "contractName": "Guardian",
  "sourceName": "contracts/Guardian.sol",
  "abi": [
    {
      "inputs": [
        {
          "internalType": "address",
          "name": "_manager",
          "type": "address"
        },
        {
          "internalType": "address",
          "name": "_oracle",
          "type": "address"
        }
      ],
      "stateMutability": "nonpayable",
      "type": "constructor"
    },
    {
      "anonymous": false,
      "inputs": [
        {
          "indexed": false,
          "internalType": "uint256",
          "name": "positionId",
          "type": "uint256"
        },
        {
          "indexed": false,
          "internalType": "enum Guardian.RiskLevel",
          "name": "riskLevel",
          "type": "uint8"
        }
      ],
      "name": "RiskThresholdBreach",
      "type": "event"
    },
    {
      "inputs": [
        {
          "internalType": "uint256",
          "name": "_positionId",
          "type": "uint256"
        }
      ],
      "name": "checkRisk",
      "outputs": [],
      "stateMutability": "nonpayable",
      "type": "function"
    },
    {
      "inputs": [],
      "name": "manager",
      "outputs": [
        {
          "internalType": "contract LeverageManager",
          "name": "",
          "type": "address"
        }
      ],
      "stateMutability": "view",
      "type": "function"
    },
    {
      "inputs": [],
      "name": "oracle",
      "outputs": [
        {
          "internalType": "contract MockPriceOracle",
          "name": "",
          "type": "address"
        }
      ],
      "stateMutability": "view",
      "type": "function"
    }
  ],
  "bytecode": "0x608060405234801561000f575f80fd5b506040516102da3803806102da83398101604081905261002e91610079565b5f80546001600160a01b039384166001600160a01b031991821617909155600180549290931691161790556100aa565b80516001600160a01b0381168114610074575f80fd5b919050565b5f806040838503121561008a575f80fd5b6100938361005e565b91506100a16020840161005e565b90509250929050565b610223806100b75f395ff3fe608060405234801561000f575f80fd5b506004361061003f575f3560e01c8063481c6a75146100435780637dc0d1d014610071578063da5eee0514610084575b5f80fd5b5f54610055906001600160a01b031681565b6040516001600160a01b03909116815260200160405180910390f35b600154610055906001600160a01b031681565b61009761009236600461018f565b610099565b005b5f80546040516317845c6960e01b8152600481018490526001600160a01b03909116906317845c6990602401602060405180830381865afa1580156100e0573d5f803e3d5ffd5b505050506040513d601f19601f8201168201806040525081019061010491906101a6565b90505f66b1a2bc2ec5000082101561011e57506003610151565b67016345785d8a000082101561013657506002610151565b6702c68af0bb14000082101561014e57506001610151565b505f5b7f26e4005a6ecae8af4794c85f1ca9d0ba0f7c6746c904f72cf130bb6b972b9eff83826040516101829291906101bd565b60405180910390a1505050565b5f6020828403121561019f575f80fd5b5035919050565b5f602082840312156101b6575f80fd5b5051919050565b82815260408101600483106101e057634e487b7160e01b5f52602160045260245ffd5b826020830152939250505056fea26469706673582212201f9b89ecd625f84f239743bb1a1083185b78c6683f77275c713f77c378b69e1a64736f6c63430008140033",
  "linkReferences": {},
  "deployedLinkReferences": {},
  "immutableReferences": {},
  "inputSourceName": "project/contracts/Guardian.sol",
  "buildInfoId": "solc-0_8_20-d4c1bc48c321c15a19ec581c670cb70c5a69e14f"
}