{
  "_format": "hh3-artifact-1",
  "contractName": "MockPriceOracle",
  "sourceName": "contracts/MockPriceOracle.sol",
  "abi": [
    {
      "inputs": [],
      "stateMutability": "nonpayable",
      "type": "constructor"
    },
    {
      "anonymous": false,
      "inputs": [
        {
          "indexed": false,
          "internalType": "string",
          "name": "asset",
          "type": "string"
        },
        {
          "indexed": false,
          "internalType": "uint256",
          "name": "price",
          "type": "uint256"
        }
      ],
      "name": "PriceUpdate",
      "type": "event"
    },
    {
      "inputs": [
        {
          "internalType": "string",
          "name": "",
          "type": "string"
        }
      ],
      "name": "assetPrices",
      "outputs": [
        {
          "internalType": "uint256",
          "name": "",
          "type": "uint256"
        }
      ],
      "stateMutability": "view",
      "type": "function"
    },
    {
      "inputs": [
        {
          "internalType": "string",
          "name": "_asset",
          "type": "string"
        }
      ],
      "name": "getPrice",
      "outputs": [
        {
          "internalType": "uint256",
          "name": "",
          "type": "uint256"
        }
      ],
      "stateMutability": "view",
      "type": "function"
    },
    {
      "inputs": [
        {
          "internalType": "string",
          "name": "_asset",
          "type": "string"
        },
        {
          "internalType": "uint256",
          "name": "_price",
          "type": "uint256"
        }
      ],
      "name": "setPrice",
      "outputs": [],
      "stateMutability": "nonpayable",
      "type": "function"
    }
  ],
  "bytecode": "0x608060405234801561000f575f80fd5b506445d964b8005f60405161002d906208aa8960eb1b815260030190565b908152604051908190036020019020556102f28061004a5f395ff3fe608060405234801561000f575f80fd5b506004361061003f575f3560e01c806322e0119214610043578063524f388914610058578063f91728881461007d575b5f80fd5b6100566100513660046101c9565b6100a7565b005b61006b61006636600461020b565b610106565b60405190815260200160405180910390f35b61006b61008b36600461020b565b80516020818301810180515f8252928201919093012091525481565b805f836040516100b79190610267565b9081526020016040518091039020819055507f3be527d7a21a1845ed037cf49572fc00ee8bb81fcdaf3328d42b1aaace473b9382826040516100fa929190610282565b60405180910390a15050565b5f80826040516101169190610267565b9081526020016040518091039020549050919050565b634e487b7160e01b5f52604160045260245ffd5b5f82601f83011261014f575f80fd5b813567ffffffffffffffff8082111561016a5761016a61012c565b604051601f8301601f19908116603f011681019082821181831017156101925761019261012c565b816040528381528660208588010111156101aa575f80fd5b836020870160208301375f602085830101528094505050505092915050565b5f80604083850312156101da575f80fd5b823567ffffffffffffffff8111156101f0575f80fd5b6101fc85828601610140565b95602094909401359450505050565b5f6020828403121561021b575f80fd5b813567ffffffffffffffff811115610231575f80fd5b61023d84828501610140565b949350505050565b5f5b8381101561025f578181015183820152602001610247565b50505f910152565b5f8251610278818460208701610245565b9190910192915050565b604081525f83518060408401526102a0816060850160208801610245565b602083019390935250601f91909101601f19160160600191905056fea2646970667358221220115d0c4da925d66b276f96f624ae052d22ebb765168b2b38a235d4c378d171ea64736f6c63430008140033",
  "linkReferences": {},
  "deployedLinkReferences": {},
  "immutableReferences": {},
  "inputSourceName": "project/contracts/MockPriceOracle.sol",
  "buildInfoId": "solc-0_8_20-6a07a9a5b71c730131c3b17242b25b9ab8869b60"
}